:020000040800F2
:10000000909D002055020008F31000085D100008C4
:10001000F1100008F90500088D1900080000000023
:100020000000000000000000000000009D0100082A
:10003000E70E000800000000F1010008811600082A
:100040006F0200086F0200086F0200086F020008CC
:100050006F0200086F0200086F0200086F020008BC
:100060006F0200086F0200086F0200086F020008AC
:100070006F0200086F0200086F0200086F0200089C
:100080006F0200086F0200086F0200086F0200088C
:100090006F0200086F0200086F0200086F0200087C
:1000A0006F0200086F0200086F0200086F0200086C
:1000B0006F0200086F0200086F0200086F0200085C
:1000C0006F0200086F0200086F0200086F0200084C
:1000D0006F0200086F020008F11600086F020008A6
:1000E0006F0200086F0200086F0200086F0200082C
:1000F0006F0200086F0200086F0200086F0200081C
:100100006F0200086F0200086F0200086F0200080B
:100110006F0200086F0200086F0200086F020008FB
:100120006F0200086F0200086F0200086F020008EB
:100130006F0200086F0200086F0200086F020008DB
:10014000710800086F0200086F0200086F020008C3
:100150006F0200086F0200086F0200086F020008BB
:100160006F0200086F0200086F0200086F020008AB
:100170006F0200086F0200086F0200086F0200089B
:100180006F0200086F020008DFF80CD000F0B8F82A
:1001900000480047ED1F0008909D00202A4B196879
:1001A0000868B0E8F04F80F30988BFF36F8F4FF015
:1001B000000080F3118870470000000006480068C6
:1001C000006880F3088862B661B6BFF34F8FBFF353
:1001D0006F8F00DF00BF00BF08ED00E0DFF80C000C
:1001E000016841F470010160704700BF88ED00E0D4
:1001F000EFF30980BFF36F8F134B1A681EF0100FD7
:1002000008BF20ED108A20E9F04F106008B44FF0CD
:10021000500080F31188BFF34F8FBFF36F8F02F050
:10022000A3FC4FF0000080F3118808BC196808682F
:10023000B0E8F04F1EF0100F08BFB0EC108A80F34A
:100240000988BFF36F8F704758000020EFF30580D7
:10025000704700000648804706480047FEE7FEE773
:10026000FEE7FEE7FEE7FEE7FEE7FEE7FEE7FEE766
:10027000951600088901000840EA01039B0703D096
:1002800009E008C9121F08C0042AFAD203E011F8D5
:10029000013B00F8013B521EF9D270472DE9F05F97
:1002A0000546002092469B468846064681464024E5
:1002B0001BE0284641464746224600F042F8534696
:1002C0005A46C01A914110D311461846224600F0F2
:1002D00029F82D1A67EB01084F462246012000211C
:1002E00000F020F817EB00094E41201EA4F1010494
:1002F000DFDC484631462A464346BDE8F09F000011
:10030000064C074D06E0E06840F0010394E8070062
:1003100098471034AC42F6D3FFF73AFFF8330008A1
:1003200018340008202A04DB203A00FA02F10020E9
:1003300070479140C2F1200320FA03F31943904023
:100340007047202A04DB203A21FA02F0002170478E
:1003500021FA02F3D040C2F120029140084319462D
:10036000704700007CB502F09BF9032200210120B8
:1003700002F0DCFC384CA06110B138A001F0C2FBE7
:1003800003220021012002F0D1FCE06110B13FA066
:1003900001F0B8FB03220021012002F0C7FC20621B
:1003A000E06910B144A001F0ADFB2B490F20091DFD
:1003B000CDE900014FF400760023324649A14D48B3
:1003C00002F0A2FE012802D14BA001F09BFB2249C2
:1003D0000E200831CDE90001002332464EA102F083
:1003E00093FE012802D150A001F08CFB1A48102581
:1003F0000C30CDE900500023324653A1574802F09B
:1004000083FE012802D156A001F07CFB1248002394
:100410001430CDE9005032465AA15F4802F074FE14
:10042000012802D15DA001F06DFB0B490D201031B8
:10043000CDE900010023324661A1664802F064FE66
:10044000012802D164A001F05DFB206802F074FA7B
:10045000BDE87C4002F060B92400002042696E6172
:10046000727953656D5F48616E646C655F43414EA0
:100470005F536574B6FED6B5D0C5BAC5C1BFB4B4B6
:10048000BDA8B3C9B9A6210A0000000042696E6187
:10049000727953656D5F48616E646C655F43414E70
:1004A0005F5254B6FED6B5D0C5BAC5C1BFB4B4BD4F
:1004B000A8B3C9B9A6210A0042696E617279536571
:1004C0006D5F48616E646C655F343835B6FED6B5D5
:1004D000D0C5BAC5C1BFB4B4BDA8B3C9B9A6210AB5
:1004E0000000000043414E315F5365745F546173F7
:1004F0006B00000059070008B4B4BDA843414E3159
:100500005F5365745F5461736BC8CECEF1B3C9B9E4
:10051000A6210D0A0000000043414E315F51756570
:1005200072795F5461736B00B4B4BDA843414E311E
:100530005F5175657279565F5461736BC8CECEF1A9
:10054000B3C9B9A6210D0A0043414E315F5265631C
:10055000656976655F5461736B0000007106000881
:10056000B4B4BDA843414E315F5265636569766599
:100570005F5461736BC8CECEF1B3C9B9A6210D0A21
:100580000000000052533438355F52656365697668
:10059000655F5461736B000005140008B4B4BDA816
:1005A00052533438355F526563656976655F5461CF
:1005B000736BC8CECEF1B3C9B9A6210D0A000000F5
:1005C00052533438355F51756572795F5461736B7E
:1005D00000000000D9130008B4B4BDA85253343849
:1005E000355F51756572795F5461736BC8CECEF11A
:1005F000B3C9B9A6210D0A00FEE700002DE9F041BC
:1006000007460025144E062000EB800007EB80040F
:10061000E17A207B00F05CFC010BC0F30B0009D0F9
:100620000EA001F06FFA6D1C0A20EDB2022DEBD383
:10063000BDE8F081B0F5C17F08D0B0F5C27FF2D13E
:10064000617CA07C00F044FCB083ECE7617CA07C82
:1006500000F03EFC3084E6E724060020CAFDBEDD43
:10066000B4ABCAE4B3F6B4EDA3A100000120704717
:100670001BA001F047FA1F4C4FF0FF3500232A461C
:100680001946A06902F08AFB01280DD11AA001F0D9
:1006900039FA1F4800F0A4F8012805D11DA001F087
:1006A00031FA606802F048F900232A461946E069E9
:1006B00002F074FB01280FD11CA001F023FA1448AA
:1006C0003C30FFF7D3FF012806D11EA001F01AFA33
:1006D0000F483C30FFF792FF0A2002F0F3F8CDE715
:1006E0000D0A20BFAACABCBDD3CAD5C8CECEF10D53
:1006F0000A000000240000200D0A43414EBDD3CA69
:10070000D5C1CB33CCF5CAFDBEDDA3BA0D0A0000BE
:10071000D0000020D5FBC1F7C4A3BFE9B3F5CABC24
:10072000C9E8D6C3CDEAB1CF000000000D0A4341AD
:100730004EBDD3CAD5C1CB3132CCF5CAFDBEDDA387
:10074000BA0D0A00CAB5CAB1CAFDBEDDBDD3CAD54D
:10075000CDEAB1CF00000000174F164E174D4FF0F5
:1007600040084FF080094FF4807A07F1020BF06ADD
:10077000D8B900247462A7F80080A7F80090ABF8FD
:1007800000A00F4800F0CAFA0D49284600F018FBF7
:100790000021284600F066FB0028F9D0641CA4B2B2
:1007A000032CE7D307A001F0ADF9142002F08AF87A
:1007B000DDE700002400002018140240006800401B
:1007C000BC0000200D0AD2D1CAB9D3C343414EB7F1
:1007D000A2CBCDC9E8D6C3C3FCC1EEA3A10D0A00CC
:1007E00070B50546C07A0024012601280FD00124E7
:1007F000E87F01280FD0641C95F8330001280ED043
:10080000641C84B109A001F07DF9002070BD0AA02C
:1008100001F078F9ECE70DA001F074F9ECE710A015
:1008200001F070F9EDE7304670BD00007365745F4C
:100830006572726F72000000CAE4B3F6B5E7D1B911
:10084000C9E8D6C3D5FDC8B700000000B9FDD1B9CD
:10085000B1A3BBA4B5E3C9E8D6C3D5FDC8B70000B2
:10086000CFDEC1F7B5E3C9E8D6C3D5FDC8B70000F0
:10087000F8B55020EFF3118480F31188BFF34F8F48
:10088000BFF36F8F2E4A00212E4800F0FFF92C494C
:100890002D4A002648682D4D904202D02C4A9042A5
:1008A00005D10A7A042A02D18A7A082A06D0294A6E
:1008B00090421DD1087A042817D019E02878142214
:1008C00000EB8001244800EB81001D49FFF7D4FCB8
:1008D0002878401CC0B2287003280CD11F486946F4
:1008E000006802F06BFB2E7005E0887A08280FD0B4
:1008F0001BA001F007F9009838B11F494FF0805054
:100900000860BFF34F8FBFF36F8F84F31188F8BD7A
:1009100068781A4900EB800001EB80001422084936
:10092000FFF7AAFC6878401CC0B268700C28E2D1BE
:1009300013486946006802F041FB6E70DBE7000077
:1009400010020020006800407E80811054000020CA
:100950007E8181107F408110D00000203C0000206B
:10096000CEB4BDD3CADCB5BDD3D0D0A7B5C4BBD837
:10097000B8B4CAFDBEDD000004ED00E00C010020AB
:10098000400000202DE9FF410121022000F0EEFB94
:10099000404F09220C21384600F04CFB09220D2162
:1009A000384600F047FB02268DF804604FF40050F3
:1009B0008DF80560002500908DF8065001248DF813
:1009C00007406946384600F0F9FA200300908DF898
:1009D00004606946384600F0F1FA4FF4407000F0C8
:1009E000BBFB40208DF8000006268DF801608DF8D5
:1009F00002508DF80340684600F07CFB0121300670
:100A000000F0C0FB244F384600F048F8684600F07C
:100A1000C7F98DF806508DF807408DF8084003207F
:100A20008DF809508DF802408DF804008DF80A50B9
:100A30008DF803408DF80B508DF80540ADF800603F
:100A40006946384600F0AEF80E208DF80A0048F2EC
:100A50000C40ADF8000040F2F470ADF802004FF623
:100A6000FF70ADF8040043F6FF608DF80B508DF871
:100A70000C40ADF80600ADF808508DF80D40684602
:100A800000F022F801220221384600F083F8BDE888
:100A9000FF8100000004024000680040094910B5D1
:100AA00088424FF0010101D14C0601E04FF0806413
:100AB000204600F073FB2046BDE81040002100F006
:100AC0006DBB000000640040F0B5827A2F4D01211B
:100AD00091402A6842F001022A602C4E1C3632688E
:100AE0008A433260294A047B294B0C32A4B914682A
:100AF0008C4314604488C78844EA0744877A03EB30
:100B0000C707C7F840460488878844EA0744877ABD
:100B100003EBC707C7F84446047B012C12D11468C5
:100B20000C431460847A026803EBC4044FEA324237
:100B3000C4F84026847A426803EBC4034FEA324289
:100B4000C3F84426114AC37A121D002B136806D03D
:100B50000B4313600D4A0389143213B104E08B4335
:100B6000F7E713688B4313600389012B02D11368E5
:100B70000B431360407B012802D13068084330608A
:100B8000286820F001002860F0BD000000660040E9
:100B900000600040002A426901D00A4300E08A4315
:100BA0004261704710B50368002223F0020303601E
:100BB000036843F0010303604FF6FF7300E0521C2B
:100BC0004468E40701D19A42F9D14268D2073ED085
:100BD0008A79012A02683CD022F080020260CA7938
:100BE000012A026838D022F0400202600A7A012A03
:100BF000026834D022F0200202604A7A012A026898
:100C000030D022F0100202608A7A012A02682CD0C9
:100C100022F008020260CA7A012A026828D022F073
:100C2000040202608A78CC78920742EA04620C7966
:100C300042EA04424C79098842EA0452491E0A43B6
:100C4000C261016821F001010160002114E000206F
:100C500010BD42F08002C1E742F04002C5E742F019
:100C60002002C9E742F01002CDE742F00802D1E7C6
:100C700042F00402D5E7491C4268D20701D09942EC
:100C8000F9D14068C007E2D1012010BD10B500EBDA
:100C90000113D3F8B04114F004041472D3F8B04136
:100CA00033D0E4085460D3F8B04104F00204547225
:100CB000D3F8B44104F00F049472D3F8B441240A79
:100CC000D474D3F8B841D472D3F8B841240A147359
:100CD000D3F8B841240C5473D3F8B841240E94735C
:100CE000D3F8BC41D473D3F8BC41240A1474D3F8AC
:100CF000BC41240C5474D3F8BC311B0E937439B12D
:100D0000016941F02001016110BD640D1460CAE762
:100D1000C16841F02001C16010BD000030B5042160
:100D2000017200211A4B4172082282721C68012252
:100D30009CB11D68174C012D19D01D68022D22D0C1
:100D40001A68032A1ED1144A4260C17201734173AA
:100D50008173C1730174417413E0104B4360C2721C
:100D6000017341738173C17301742C2208E04460E4
:100D7000C2720222027341738173C1730174322201
:100D80004274817430BD4460C27203220273DEE794
:100D900048000020FE818110FF408110FE808110FC
:100DA00000218171C171017241728172C1728170C1
:100DB000C17003210171022141710121018070473D
:100DC00030B50246002093685B0108D490680001AA
:100DD00001D5012003E09068C00037D5022002EB66
:100DE0000012D2F8803103F00103C2F880310B7A8F
:100DF00073B3D2F880414D681C434B7A43EAC50374
:100E00001C43C2F880418B7A03F00F038B72D2F837
:100E1000843123F00F03C2F88431D2F884318C7A04
:100E20002343C2F88431CB7ACC6843EA0423C2F866
:100E30008831CB7B096943EA0121C2F88C11D2F8D1
:100E4000801141F00101C2F8801130BD042030BD95
:100E5000D2F880314C7A23430C8843EA4453C2F8D9
:100E60008031D0E7002221B1012905D0022906D125
:100E700012E08268114801E082681148024011497D
:100E8000501A8A4214D00ADCA2B16FF080601018A8
:100E90000FD002280CD10FE082680B48EEE7B0F5C6
:100EA000007F09D00949401803D0B0F5003F03D0B6
:100EB00000207047022070470120704703000004A3
:100EC0000003000800010008000003100001FFF704
:100ED00008B50022ADF800208DF800008DF8011053
:100EE000BDF8000008BD7047F0B5012187B0084685
:100EF00000F03CF90121102000F05CF901250024EC
:100F00008DF806408DF8075002266802254F8DF8AF
:100F1000056000908DF804606946384600F04EF890
:100F2000A80200908DF804606946384600F046F843
:100F300007220A21384600F07DF8072209213846A9
:100F400000F078F84FF4E130ADF80C400290ADF8C5
:100F50000E40ADF81040ADF814400C20124CADF826
:100F6000120002A9204600F0B3FC4FF4A06000F08C
:100F7000F3F825208DF818008DF819508DF81A50C7
:100F80008DF81B5006A800F0B5F8012240F225515B
:100F9000204600F084FC0121204600F050FC07B000
:100FA000F0BD0000000002400010014001B50098B3
:100FB00001E0401E00900028FBD108BDF0B50022E2
:100FC00001274FF0030C0B6807FA02F52B40AB42E8
:100FD0002CD1066853000CFA03F4A64306600E7980
:100FE000D0F800E09E4046EA0E0606600E79012E1B
:100FF00001D0022E12D18668A64386604E79D0F8C1
:1010000008E09E4046EA0E0686604668AE434660AB
:1010100045688E799640B6B235434560C568A543AC
:10102000C560CC799C40C3681C43C460521C102A24
:10103000C9D3F0BD4B07DB0E9A40C90810B500EBD1
:101040008100016A0F249C40A1430162016A11439F
:10105000016210BD4183704701837047FEE70000C5
:101060001CB50121052000F081F80120009000202E
:101070008DF804008DF8070069460548FFF79EFFCC
:101080004FF40050009069460248FFF797FF1CBDDF
:1010900000000240000802402DE9FC41012120200F
:1010A00000F064F801208DF8040000218DF806108E
:1010B0008DF807000D4F40248DF805100094694607
:1010C0003846FFF77BFF8025694638460095FFF7D5
:1010D00075FFA600694638460096FFF76FFF034884
:1010E0001830048005800680BDE8FC8100140240B1
:1010F000FEE7704730B50F23C27801780125FAB1B9
:10110000144A126801F1E02102F4E062C2F5E062E3
:10111000C2F30722C2F10404D3404278A24084788B
:101120001C401443220181F80024007800F01F01C4
:101130008D404009800000F1E020C0F8005130BD32
:1011400001F01F0085404809800000F1E020C0F850
:10115000805130BD0CED00E00249084302490860AF
:10116000704700000000FA050CED00E0044A002979
:10117000116801D0014300E0814311607047000015
:1011800030380240044A0029116801D0014300E0D0
:10119000814311607047000040380240044A002932
:1011A000116801D0014300E08143116070470000E5
:1011B00020380240044A0029116801D0014300E0B0
:1011C00081431160704700004438024070B5204BE5
:1011D0001968204C11F00C0104D01F4E042903D0D3
:1011E000082903D004601BE0066019E0184A121FAA
:1011F0001168C1F38055116801F03F0115B1B6FBCC
:10120000F1F101E0B4FBF1F114681268C4F3881441
:101210006143C2F30142521C5200B1FBF2F1016082
:1012200019680F2202EA11110C4A545C0168E1406E
:1012300041601C68072505EA9424145D21FA04F432
:1012400084601B6805EA5333D25CD140C16070BD35
:10125000083802400024F40040787D01140000208A
:1012600070B5594C594D20462279807A102A08D001
:10127000112A1CD0122A1BD0BDE8704054A000F0E7
:1012800041BC6179012912D1617AFFF721FEA88260
:10129000E17A207BFFF71CFEE882617BA07BFFF7F1
:1012A00017FE2883E17B207CFFF712FE688370BD68
:1012B00014F80B2F01461046FFF70AFE25F8240FFD
:1012C0006178A078FFF704FE6880E1782079FFF765
:1012D000FFFDA8806179A079FFF7FAFDE880E17948
:1012E000207AFFF7F5FD2881617AA07AFFF7F0FDFB
:1012F0006881E17A207BFFF7EBFDA881617BA07B11
:10130000FFF7E6FDE881E17B207CFFF7E1FD288225
:10131000617CA07CFFF7DCFD6882E17C207DFFF72B
:10132000D7FDA882617DA07DFFF7D2FDE882E17D37
:10133000207EFFF7CDFD2883617EA07EFFF7C8FDEC
:101340006883E17E207FFFF7C3FDA883617FA07FD4
:10135000FFF7BEFDE883E17F94F82000FFF7B8FDBA
:10136000288494F8211094F82200FFF7B1FD6884D6
:1013700094F8231094F82400FFF7AAFDA88494F8A9
:10138000251094F82600FFF7A3FDE88494F82710B1
:1013900094F82800FFF79CFD288594F8291094F80C
:1013A0002A00FFF795FD688594F82B1094F82C001F
:1013B000FFF78EFDA88594F82D1094F82E00FFF706
:1013C00087FDE88570BD000024020020240600206F
:1013D0006572726F720A0000084D0024AC62084802
:1013E00000F082F81221064800F058FB641CA4B2F9
:1013F000062CF3D3142001F065FAEEE72400002058
:10140000FC01002017A000F07DFB20A000F07AFB7B
:10141000254F4FF0FF380A26002342461946386A06
:1014200001F0BCFC0128F7D120A000F06BFB244D9B
:1014300024A000F067FB002428A0295D00F062FBD7
:10144000601C90FBF6F106FB110010B925A000F01E
:1014500059FB641C1E2CEFDB22A000F053FBFFF7AE
:10146000FFFED9E70D0A20BBB6D3ADCAB9D3C3D2AC
:10147000B0BBF0202053544D333220463430372057
:10148000BFAAB7A2B0E5A1A30D0A00000D0A20343F
:101490003835CDA8D1B6BBD8BBB7CAB5D1E9C0FDE8
:1014A000B3CC0D0A00000000240000200D0A4341C7
:1014B0004EBDD3CAD5B5BDCAFDBEDDA3BA0D0A0067
:1014C000240200203C3C2D5F3438352D44454255E4
:1014D000472D41525241592D3E3E0A002530327867
:1014E000202020000A00000071B555210098022339
:1014F000002201707E21417013210171012141718F
:101500008371C271082404722F4C4274266810251E
:101510008EB12668012E13D026681125022E18D010
:101520002668032E1BD026681225042E1ED02468A0
:10153000052C23D02CE08570C1704372817203E0CA
:101540008570C37041728372C1720173417381737C
:101550001CE08570C17041728172C372F5E78570BD
:10156000C37041728172C1720373EFE78570C170FD
:1015700041728172C17201734373E8E78570C37071
:1015800041728172C172017341738373C2730274B9
:1015900004236946002231F8024B9B1E2244022B91
:1015A000F9D2012B01D109780A44110C11FA82F108
:1015B0000A0C12FA81F1C9430904090C01D14FF652
:1015C000FF71417478BD00004C0000200CB5002272
:1015D000274900920192086840F4803008604FF477
:1015E000A043086800F4003001900098401C00906F
:1015F000019810B900989842F3D10868800334D557
:10160000012001901A484030026842F08052026086
:101610001848026842F440420260154808300268E7
:101620000260026842F400420260026842F4A05282
:101630000260031F104A1A600A6842F080720A6052
:101640000A689201FCD50D4940F205720A600168F2
:1016500021F003010160016841F0020101600168AD
:10166000C1F381010229FAD10CBD01920CBD000029
:10167000003802400070004019544007003C02400E
:1016800010B501F06DFD012803D0BDE8104001F058
:1016900037BB10BD124810B5016841F470010160FC
:1016A0001048016841F0010101600E4A0021083232
:1016B000116002680C4B1A400260031D0B4A1A604D
:1016C000026822F48022026006480C300160FFF7B5
:1016D0007DFF03494FF000608039086010BD0000B5
:1016E00088ED00E000380240FFFFF6FE10300024D5
:1016F0002DE9F8435020EFF3118480F31188BFF3F4
:101700004F8FBFF36F8F00F04FFC3B4F40F22558D7
:101710004146384600F0A4F8384E394D58B141469C
:10172000384600F086F8384600F028F96988705489
:101730006888401C688031484FF48061002230F88E
:10174000023B08391A4430F8023B08291A4430F8A1
:10175000043B1A4430F8023C1A44F0D203E030F85B
:10176000023B891E1A440229F9D2012901D10078CD
:101770000244100C10FA82F0010C11FA80F0C04300
:101780000004000C01D14FF6FF706988314401F864
:10179000010CF078132817D168881A49304410F8E2
:1017A000010C497C88420FD117486946006801F056
:1017B00005FC009858B115494FF080500860BFF300
:1017C0004F8FBFF36F8F02E011A000F09BF908214B
:1017D000384600F03EF8012806D10821384600F0CE
:1017E00025F8384600F0CAF84146384600F021F89E
:1017F00084F31188BDE8F8830044004024020020EF
:1018000054000020FC0100204400002004ED00E012
:10181000D0A3D1E9BACDB2BBD2BBD6C2A3ACB4ABD4
:10182000CAE4CAFDBEDDB3F6B4ED0000C9430180D1
:1018300070470A0A01219140C9430180704700297D
:10184000818902D041F4005101E021F400518181ED
:1018500070470246002012880A4200D001207047DB
:1018600070B501F01F0501260024C1F3421306FAEA
:1018700005F2012B0FD0022B0FD0838A4FEA1121E2
:101880000088134206FA01F600EA060001D000B112
:101890000124204670BD8389F0E7038AEEE710B586
:1018A000C1F3421301F01F040121A140012B07D015
:1018B000022B07D01430002A026805D00A4304E046
:1018C0000C30F8E71030F6E78A43026010BD0000E4
:1018D0007FB50446008A0D46C98820F44050014374
:1018E0002182A08941F20C618843A9882A89114389
:1018F0006A8902431143A181A08A20F44071A8891A
:101900000843A0826846FFF761FC1A48844202D06F
:101910001948844201D1039800E00298A189090482
:1019200000EBC00101EB0010296801D5490000E07F
:101930008900B0FBF1F06422B0FBF2F109010B0960
:101940006FF018056B4300EB8300A3891D044FF073
:10195000320306D503EBC000B0FBF2F000F0070045
:1019600005E003EB0010B0FBF2F000F00F000843BD
:1019700020817FBD00100140001401408088C0F329
:1019800008007047C1F3080181807047FEE700003E
:1019900070B588B001210520FFF7E8FB012148045C
:1019A000FFF7F0FB324D072203212846FFF742FBE9
:1019B000072202212846FFF73DFB00248DF8064050
:1019C0008DF80740022604208DF8046000908DF801
:1019D000056069462846FFF7F1FA082000908DF867
:1019E000046069462846FFF7E9FA8DF806408DF84D
:1019F000074001258DF804508DF805601D4E0095B7
:101A000069463046FFF7DAFA4FF4E130ADF80C40A2
:101A10000290ADF80E40ADF81040ADF814400C2027
:101A2000154CADF8120002A92046FFF751FF012125
:101A30002046FFF704FF4FF4E060FFF78DFB262000
:101A40008DF818008DF819508DF81A508DF81B502C
:101A500006A8FFF74FFB012240F225512046FFF771
:101A60001EFF01213046FFF7F5FA08B070BD0000F7
:101A700000000240000802400044004010B5064C3F
:101A800001462046FFF77EFF80212046FFF7E1FE5A
:101A90000028F9D010BD0000004400402DE9F341BA
:101AA0004FF47A760D460024304600F023F8DFF834
:101AB000408001214046FFF7CFFA304600F01AF887
:101AC0006F46385DFFF7DAFF641CAC42F9D340F68D
:101AD000FF70FFF76BFA304600F00CF8012140462A
:101AE000FFF7B8FA3046BDE8FC4100F003B800004B
:101AF0000008024001B5009801E0401E0090002857
:101B0000FBD108BD0FB4054B10B503A9044A0298D8
:101B100000F018F810BC5DF814FB0000C91F0008A5
:101B2000B800002002E008C8121F08C1002AFAD13C
:101B300070477047002001E001C1121F002AFBD14D
:101B4000704700002DE9FF4F8DB00F460546002677
:101B500006E025280BD0DDE90F1290476D1C761C9E
:101B600028780028F5D111B03046BDE8F08F002468
:101B7000A246A1460122EC4900E0044315F8013FCA
:101B8000203B02FA03F00842F7D128782A2810D027
:101B90006FF02F022878A0F13001092914D80AEB40
:101BA0008A0102EB410144F0020400EB010A6D1CC2
:101BB000F0E701CF5FEA000A03D544F40054CAF10C
:101BC000000A44F002046D1C28782E2817D115F85D
:101BD000010F44F004042A280ED06FF02F02287859
:101BE000A0F1300109290AD809EB890102EB410172
:101BF00000EB01096D1CF2E757F8049B6D1C287877
:101C00006C280FD006DC4C2817D068280DD06A2825
:101C100014D104E0742810D07A280FD10DE044F4D8
:101C200000140AE044F4801401E044F4401469789C
:101C3000814202D104F580146D1C6D1C2A786E2A35
:101C40001FD00CDC632A31D004DC002A8BD0582A48
:101C500011D1A3E0642A68D0692A0CD165E0732A07
:101C60002ED004DC6F2A73D0702A04D19BE0752A31
:101C70006FD0782A6ED01046DDE90F129047761C9F
:101C800050E1C4F30250022806D0032809D00428EA
:101C900001CF09D0066045E101CFF117C0E900612D
:101CA00040E101CF06803DE106703BE117F8040BEF
:101CB0008DF8000000208DF80100EB46012003E0C4
:101CC00057F804BB4FF0FF3061074FF0000102D41A
:101CD0000DE008F10101884649450FDA8045F8DB3F
:101CE0001BF808100029F4D108E008F1010188462A
:101CF0008142FADB1BF808100029F6D1DDE90F2339
:101D0000AAEB08008146214600F036F9304400EB8A
:101D1000080604E0DDE90F121BF8010B9047B8F14B
:101D20000108F7D221464846F7E00A21C4F30253DE
:101D30004FF0000B0891022B04D001CFC117032BE9
:101D400009D00AE0FF1D27F00707F7E8020108E0C5
:101D500032E01FE020E000B2C117042B01D140B2F5
:101D6000C117031E71F1000307DA4FF0000CD0EB2E
:101D70000C006CEB01012D2302E0230504D52B237D
:101D80008DF82430012303E0E30701D02023F7E797
:101D9000984658E00A2110E010210EE010204FF084
:101DA000000B08900CE010214FF0000B44F00404ED
:101DB0004FF00809089103E008214FF0000B08914B
:101DC000C4F30253022B04D001CF0021032B06D011
:101DD00006E0FF1D27F00707F7E8020103E080B2E5
:101DE000042B00D1C0B24FF0000823072BD5702A76
:101DF00007D0DDF820C08CF0100C5CEA0B0C05D08D
:101E00000EE040238DF82430012308E050EA01035E
:101E100006D030238DF824308DF8252002239846F3
:101E2000DDF820C08CF0080C5CEA0B0C0BD150EAFA
:101E3000010301D1630706D530238DF824304FF01C
:101E40000108A9F10109582A04D038A20B9208AA66
:101E50000A920BE03AA2F9E75B46089AFEF71EFAEF
:101E60000B9B9B5C0A9A521E0A92137050EA010265
:101E7000F2D10A98ADEB000000F1200B600702D50B
:101E800024F4803401E04FF00109D94502DDA9EBCB
:101E90000B0000E0002000EB0B0141440890AAEB8E
:101EA000010AE00306D4DDE90F232146504600F085
:101EB00063F806444FF0000908E009A911F8090089
:101EC000DDE90F12904709F10109761CC145F4DBE9
:101ED000E0030CD5DDE90F232146504600F04CF815
:101EE000064404E0DDE90F1230209047761C089983
:101EF000481E08900029F5DC08E00A980A99007845
:101F0000491C0A91DDE90F129047761CBBF10001D4
:101F1000ABF1010BF1DC21465046DDE90F2300F067
:101F200019F806446D1C1BE60928010030313233D4
:101F30003435363738396162636465660000000005
:101F400030313233343536373839414243444546EF
:101F5000000000002DE9F041044600251E4617460A
:101F6000880404D405E039462020B0476D1C641E67
:101F7000F9D52846BDE8F0812DE9F0410446002559
:101F80001E469046C80301D5302700E0202788046C
:101F900004D505E041463846B0476D1C641EF9D5AE
:101FA0002846BDE8F0810000054A002140F20140CA
:101FB0005180044A401E0004000C1154FAD17047AD
:101FC000540000202402002070B5074D0446C1B221
:101FD0002846FFF7D7FC80212846FFF73AFC002867
:101FE000F9D0204670BD0000001001401CB54FF430
:101FF0004070FFF7B1F8FFF74FF8FEF775FFFFF7F6
:102000002FF8FEF7BFFCFFF7C3FC0AA0FFF77AFD2D
:1020100016490120CDE900014202002314A118480D
:1020200001F072F8012802D04FF0FF301CBD00F023
:1020300049FDFEE7D5E2CAC7D2BBB8F65BD2B0BB5A
:10204000F05D2D53544D3332C8ABCFB5C1D0BFAACC
:10205000B7A2B0E52D4672656552544F53B9CCBC5A
:10206000FEBFE2C0FDB3CCA3A10A0A0024000020F9
:102070004170705461736B43726561746500000058
:10208000650300082DE9F041184E0F460446F56837
:102090003068001D00F0C0FA38B9306890F82C1094
:1020A00001208840316981433161601C07D137B11B
:1020B0003168BDE8F0410E48091D00F0E5BA30680E
:1020C0002C44AC424460316805D2B06BBDE8F041AD
:1020D000091D00F0C1BA706B091D00F0BDFAB06AAD
:1020E000844200D2B462BDE8F081000058000020B4
:1020F000780900202DE9F041054600F0D1FA2D4E77
:10210000B068401CB06030682B4F10B1706930B3BC
:102110002BE03560B068012827D1002404EB84004F
:1021200007EB800000F08AFA641C202CF6D32348C9
:1021300000F084FA2148143000F080FA1F4828305B
:1021400000F07CFA1D483C3000F078FA1B48503013
:1021500000F074FA194870631430B06305E0306819
:10216000E96AC06A884200D83560706A0121401C63
:102170007062E86A326981401143316100EB80008E
:1021800007EB8000291D00F07FFA00F0C5FA7069A6
:1021900000280CD03068E96AC06A884207D2084932
:1021A0004FF080500860BFF34F8FBFF36F8FBDE8D3
:1021B000F081000058000020A80600202809002017
:1021C00004ED00E070B5124E124D1CE000F0C4FCAE
:1021D000306820B1002401F099F8A4B901E001248D
:1021E000F9E700F05DFAF068C468201D00F014FA09
:1021F000A868401EA8606868401E686000F08CFAFD
:10220000204600F01CF868680028DFD170BD00008F
:10221000640900205800002030B4026C0B46002AEC
:102220000BD0C1681144C1604468A14201D3016868
:10223000C16030BC1846FEF71FB830BC704710B5FF
:102240000446006B00F09AFA2046BDE8104000F00A
:1022500095BA000010484FF41041420706D0C01D47
:102260000D4920F00700411AC1F510410B4A002327
:102270000144C2E900030839103A21F00701116056
:102280004B600B600B1AC0E9001393604FF00040E5
:102290005360D060704700008C090020A40000202B
:1022A000074E4FF08054074DFFF78CFF3068012830
:1022B000FAD92C60BFF34F8FBFF36F8FF4E70000A4
:1022C000A806002004ED00E02DE9F047DDE90984CF
:1022D0000E4682466FF00301206B01EB8201084439
:1022E000089D20F007079946780705D040F22B3269
:1022F00018A11FA0FFF706FC00202218315C82F80D
:102300003410315C11B1401C1028F6D3002684F83B
:102310004360202D00D31F25201DE56200F099F9B0
:1023200004F1180000F095F92461C5F12000646201
:10233000A061666484F848604A465146384600F019
:1023400055F92060B8F1000F01D0C8F80040BDE891
:10235000F08700002E2E5C2E2E5C4672656552546E
:102360004F535C7372635C7461736B732E63000014
:102370004572726F723A25732C25640D0A000000B5
:1023800030B5114900E011460A688242FBD34B6820
:102390005C18844203D1406818444860084643688A
:1023A0001C18944209D1084C103C2468A24209D060
:1023B00052681A4442600A6812680260814200D082
:1023C000086030BD0460F9E7A400002010B50446A1
:1023D00000F066F9A06B20B1002400F09DF92046C2
:1023E00010BD0124F9E700000648416B096829B1D6
:1023F000416BC968C9684968816270474FF0FF3115
:10240000FAE700005800002008484068401C05D04A
:1024100040F20F1206A111A0FFF774FB502080F3C9
:102420001188BFF34F8FBFF36F8FFEE7AC00002022
:102430002E2E5C2E2E5C4672656552544F535C7096
:102440006F72745C525644535C41524D5F434D343D
:10245000465C706F72742E63000000004572726FEC
:10246000723A25732C25640D0A0000002DE9F04115
:10247000044600F015F994F9455004F1240609E0EA
:10248000606A48B1304600F0F1FE08B100F0BEFAD3
:102490006D1E6DB2002DF3DC4FF0FF3684F8456001
:1024A00000F03AF900F0FCF894F9445004F11007F8
:1024B00009E0206948B1384600F0D8FE08B100F0C4
:1024C000A5FA6D1E6DB2002DF3DC84F84460BDE802
:1024D000F04100F021B900002DE9F0410546002649
:1024E00000F03AFB324F386808B9FFF7B3FEF868DE
:1024F00005424FD1002D4DD0083568070BD005F0AF
:102500000700C0F108000544680704D0BF2229A1D4
:1025100032A0FFF7F7FA002D3CD07868854239D811
:10252000234910310846046801E0214604466068EA
:10253000A84202D220680028F7D13868B846844201
:1025400028D00E682068086060680836401B102894
:102550000ED96719780704D0EC2216A11FA0FFF747
:10256000D1FA6068401B786038466560FFF708FF65
:102570006168D8F804004246401AC8F80400D8F848
:102580000830984200D29060D8F80C000143002037
:10259000C4E9000100F0BAFE700705D04FF496724E
:1025A00004A10EA0FFF7AEFA3046BDE8F0810000AE
:1025B000940000202E2E5C2E2E5C467265655254CF
:1025C0004F535C706F72745C4D656D4D616E675CEE
:1025D000686561705F342E63000000004572726FA1
:1025E000723A25732C25640D0A00000010B5031FF4
:1025F0004FF080741C601B1F21F001011960191F2E
:10260000044B0B6014390A60091F6FF00202443852
:102610000A6010BD09240008D0E9013201699A60FE
:10262000D0E901235A604A68824201D182684A6037
:10263000002202610868401E0860704700F108012E
:102640004FF0FF32C0E90112C16001610021016059
:10265000704700210161704730B50C68621C02D0E0
:1026600000F1080202E0026904E01A4653681D689E
:10267000A542FAD953684B6099608A60516008613D
:102680000168491C016030BD42684A6093688B60F4
:1026900093685960916008610168491C0160704746
:1026A000502080F31188BFF34F8FBFF36F8F09491C
:1026B0004868401C486001280AD10748006810F0AB
:1026C000FF0F05D040F2B91204A10FA0FFF71ABA0C
:1026D00070470000AC00002004ED00E02E2E5C2EC0
:1026E0002E5C4672656552544F535C706F72745C19
:1026F000525644535C41524D5F434D34465C706FBB
:1027000072742E63000000004572726F723A257376
:102710002C25640D0A00000010B5084C606828B92B
:102720004FF4E07206A111A0FFF7ECF96068401EBB
:10273000606001D180F3118810BD0000AC00002062
:102740002E2E5C2E2E5C4672656552544F535C7083
:102750006F72745C525644535C41524D5F434D342A
:10276000465C706F72742E63000000004572726FD9
:10277000723A25732C25640D0A00000070B50028FC
:102780002AD0164DA0F108046068E968084205D116
:102790004FF4A07212A11CA0FFF7B4F9206828B171
:1027A00040F241120EA118A0FFF7ACF96068E96889
:1027B000084211D02268002A0ED18843606000F0E0
:1027C000CBF960686968084468602046FFF7D8FD67
:1027D000BDE8704000F09ABD70BD0000940000207C
:1027E0002E2E5C2E2E5C4672656552544F535C70E3
:1027F0006F72745C4D656D4D616E675C686561708C
:102800005F342E63000000004572726F723A2573C8
:102810002C25640D0A00000006484FF47A71006808
:10282000B0FBF1F14FF0E020491E41610721016149
:10283000704700000000002010B5FDF707FD104CA8
:1028400010280CD300F1E02090F8F00321788842A2
:1028500005D24FF440720BA115A0FFF753F91848A9
:102860000068A16800F4E060884207D9BDE8104024
:102870004FF4447203A10EA0FFF744B910BD00004D
:10288000AC0000202E2E5C2E2E5C467265655254E4
:102890004F535C706F72745C525644535C41524D9E
:1028A0005F434D34465C706F72742E63000000000D
:1028B0004572726F723A25732C25640D0A00000070
:1028C0000CED00E010B5040012D00E49096B29B1DF
:1028D00040F2CF420CA113A0FFF714F900F03CF92D
:1028E00000212046FFF7CEFB00F010FD002807D1A5
:1028F00010494FF080500860BFF34F8FBFF36F8FC8
:1029000010BD0000580000202E2E5C2E2E5C46725A
:10291000656552544F535C7372635C7461736B737F
:102920002E6300004572726F723A25732C25640D78
:102930000A00000004ED00E070B50446FFF7B0FEA9
:10294000234D04B92C68201DFFF766FE58B9E06AD4
:10295000204A00EB800152F8211021B90121814069
:10296000286988432861A06A18B104F11800FFF7AC
:1029700053FE686A401C68622868844207D1211DA2
:102980001548FFF781FE6868401C686007E0A8688A
:10299000401EA8602046FFF752FCFFF725FDFFF719
:1029A000BBFE6869002812D0286884420FD1286BCA
:1029B00028B140F2654209A10FA0FFF7A3F8124920
:1029C0004FF080500860BFF34F8FBFF36F8F70BD23
:1029D00058000020A8060020640900202E2E5C2E3E
:1029E0002E5C4672656552544F535C7372635C741F
:1029F00061736B732E6300004572726F723A2573B8
:102A00002C25640D0A00000004ED00E001490120BE
:102A1000C86170475800002070B50D46040005D10C
:102A200040F6063207A10EA0FFF76CF810480168C7
:102A300020461831FFF710FE2846BDE870400121FE
:102A4000FFF720BB2E2E5C2E2E5C4672656552541D
:102A50004F535C7372635C7461736B732E6300001D
:102A60004572726F723A25732C25640D0A000000BE
:102A70005800002010B5040005D140F6C13205A170
:102A80000BA0FFF73FF80E48016A2160C068606044
:102A900010BD00002E2E5C2E2E5C467265655254D1
:102AA0004F535C7372635C7461736B732E630000CD
:102AB0004572726F723A25732C25640D0A0000006E
:102AC000580000201CB515480024CDE900402346DD
:102AD000802213A1144800F017FB01280AD0401CE3
:102AE0001BD102B040F28472BDE810400FA116A0C5
:102AF000FFF708B8502080F31188BFF34F8FBFF362
:102B00006F8F06484FF0FF312C38816201214161FF
:102B1000C460BDE81C4000F069B81CBD8400002002
:102B200049444C4500000000A12200082E2E5C2ED6
:102B30002E5C4672656552544F535C7372635C74CD
:102B400061736B732E6300004572726F723A257366
:102B50002C25640D0A0000000248016B491C01632A
:102B6000704700005800002070B5134D286B10B15D
:102B70000120E86170BD0020E86128690F4EB0FABD
:102B800080F0C0F11F0000EB800456F8240028B943
:102B900040F6F6220AA111A0FEF7B4FF06EB84006E
:102BA00000F10802416849684160914201D14968D9
:102BB0004160C868286070BD58000020A806002049
:102BC0002E2E5C2E2E5C4672656552544F535C73FC
:102BD00072635C7461736B732E6300004572726F75
:102BE000723A25732C25640D0A0000001CB5304C88
:102BF00020683049884205D140F259122EA139A0EF
:102C0000FEF780FF20682B49491E884205D14FF40A
:102C1000AD7229A133A0FEF775FF364C20780190E4
:102C2000FF20207020788DF800009DF800009DF8AE
:102C3000001000F0F000884205D040F273121EA18F
:102C400028A0FEF75FFF9DF800002B4A00F050001F
:102C500010700720906007E09068401E90609DF81B
:102C6000000040008DF800009DF800000006F3D43D
:102C7000107A000200F4E0609060019820700C4827
:102C80002030016841F470010160016841F0704139
:102C90000160FFF7C1FD00205060FDF79FFA174863
:102CA000016841F040410160FDF788FA00201CBD39
:102CB00000ED00E071C20F412E2E5C2E2E5C46729C
:102CC000656552544F535C706F72745C5256445336
:102CD0005C41524D5F434D34465C706F72742E639D
:102CE000000000004572726F723A25732C25640D46
:102CF0000A00000000E400E0AC00002034EF00E037
:102D000010B5502080F31188BFF34F8FBFF36F8F42
:102D100000F034FA18B104494FF0805008600020E8
:102D200080F3118810BD000004ED00E070B50E4680
:102D3000050005D14FF4C4720DA114A0FEF7E2FE08
:102D400096B105FB06F04830FFF7C6FB040009D03A
:102D500004F1480120464EB10160C0E90F5601213F
:102D600000F0D4F8204670BD0020ECE70060F4E7E6
:102D70002E2E5C2E2E5C4672656552544F535C734A
:102D800072635C71756575652E6300004572726FC4
:102D9000723A25732C25640D0A0000002DE9FF4FBF
:102DA00083B09B468A4604004FF0000605D140F2EE
:102DB000DC424AA150A0FEF7A5FEBAF1000F07D1F0
:102DC000206C28B140F2DD4244A14BA0FEF79AFEF0
:102DD00000F0C6F938B9059828B14FF49C623FA1BC
:102DE00045A0FEF78FFE4FF000094FF08057DFF847
:102DF0001881FFF755FCA56B1DB351462046E668C8
:102E0000FFF70AFABBF1000F13D0E660606A50B119
:102E100004F1240000F02AFA28B1C8F80070BFF3CA
:102E20004F8FBFF36F8FFFF777FC012007B0BDE82E
:102E3000F08F6D1EA56320690028F4D004F1100006
:102E4000E8E7059808B11EB106E0FFF765FC27E04A
:102E50006846FFF70FFE0126FFF75EFCFFF77CFEDA
:102E6000FFF71EFC94F94400401C01D184F8449003
:102E700094F94500401C01D184F84590FFF74CFCC3
:102E800005A9684600F0F8F8002820460AD0FFF7A8
:102E9000EDFA00F03BFA2046FFF798FA0028A8D098
:102EA0000020C3E7FFF792FA90B104F124000599DE
:102EB000FFF7B2FD2046FFF7D9FA00F027FA002805
:102EC00097D1C8F80070BFF34F8FBFF36F8F90E7B3
:102ED0002046FFF7CBFA00F019FA8AE72E2E5C2E77
:102EE0002E5C4672656552544F535C7372635C711D
:102EF000756575652E6300004572726F723A2573B1
:102F00002C25640D0A00000004ED00E070B50D46AC
:102F1000040005D140F21B121CA123A0FEF7F2FD14
:102F2000FFF7BEFBD4E90F20216802FB00116160AE
:102F30000021A1632168A1600A46D4E90F01401E67
:102F400000FB0121E16021464FF0FF3001F8440F02
:102F5000487004F110004DB1FFF770FB04F124003C
:102F6000FFF76CFBFFF7D8FB012070BD216900293A
:102F7000F8D000F07BF90028F4D00F494FF08050D2
:102F80000860BFF34F8FBFF36F8FEBE72E2E5C2EE1
:102F90002E5C4672656552544F535C7372635C716C
:102FA000756575652E6300004572726F723A257300
:102FB0002C25640D0A00000004ED00E070B50E46FB
:102FC000040005D140F23C4220A127A0FEF79AFD63
:102FD000206C28B14FF488621CA123A0FEF792FD5B
:102FE000206838B9606828B140F2454217A11EA098
:102FF000FEF788FDFFF720FC5020EFF3118580F3EA
:103000001188BFF34F8FBFF36F8FA16BE06B8842C6
:1030100018D994F94500491CA163411C04D0401CF7
:1030200084F8450001200EE0606A0028FAD004F11F
:10303000240000F01BF90028F4D0002EF2D001206B
:103040003060EFE7002085F3118870BD2E2E5C2ED6
:103050002E5C4672656552544F535C7372635C71AB
:10306000756575652E6300004572726F723A25733F
:103070002C25640D0A00000070B50D46040005D132
:1030800040F6CB3214A11BA0FEF73CFD2DB940F653
:10309000CC3211A117A0FEF735FDFFF701FB194A4D
:1030A000D06829684B1C0FD02368126A934202D063
:1030B000626882420AD96268801A884206D2081A77
:1030C00028602046FFF7D6FC002400E00124FFF72B
:1030D00023FB204670BD00002E2E5C2E2E5C467217
:1030E000656552544F535C7372635C7461736B73A8
:1030F0002E6300004572726F723A25732C25640DA1
:103100000A000000580000202DE9FF5F8346DDE93A
:103110000E87994616468A469000FFF7DDF90500AE
:103120001AD04C20FFF7D8F9040012D025630021F3
:10313000CDE90241CDE900874B463246514658461B
:10314000FFF7C2F82046FEF7D5FF012004B0BDE826
:10315000F09F2846FFF712FB4FF0FF30F6E7000024
:103160000548416919B1006B18B100207047012072
:103170007047022070470000580000202DE9F04100
:103180002D4F0026386B40B1B869401CB861F86912
:1031900000B101263046BDE8F081FD686D1CFD6080
:1031A00011D1786B006828B140F6D91223A12AA06A
:1031B000FEF7A8FC786BB96B7963B863386A401C7A
:1031C0003862FFF711F9B86ADFF89C80854209D3AD
:1031D000786B006880B1786BC068C46860688542AD
:1031E0000DD2B8623868C06A00EB800158F821003F
:1031F0000128CCD90126CAE74FF0FF30F1E7201DA6
:10320000FFF70AFAA06A18B104F11800FFF704FAF0
:10321000E06A01213A6981401143396100EB800184
:1032200008EB8100211DFFF72FFAE06A3968C96AAF
:103230008842CDD30126CBE7580000202E2E5C2EED
:103240002E5C4672656552544F535C7372635C74B6
:1032500061736B732E6300004572726F723A25734F
:103260002C25640D0A000000A80600202DE9F0417D
:10327000C068C4682CB940F6613216A11CA0FEF7E4
:1032800041FC04F118000746FFF7C6F91C4D286BF6
:10329000012660B139461B48FFF7F6F9E06A296854
:1032A000C96A884213D90120EE61BDE8F081201D72
:1032B000FFF7B2F9E06A2A6906FA00F111432961C1
:1032C000114900EB800001EB8000211DE4E70020A4
:1032D000EBE700002E2E5C2E2E5C46726565525484
:1032E0004F535C7372635C7461736B732E63000085
:1032F0004572726F723A25732C25640D0A00000026
:103300005800002050090020A80600202DE9F047B1
:103310002B4D00242746286B28B94FF4FD6229A1C4
:103320002FA0FEF7EFFBFFF7BBF9286B401E2863C9
:10333000286BE8BBA8682E490126C8B3A1F52A79F5
:103340008846D8F80010E9B1D8F80C00C46804F138
:103350001800FFF761F9201DFFF75EF9E06A2A699E
:1033600006FA00F11143296100EB800109EB8100AD
:10337000211DFFF789F9E06A2968C96A8842E0D30C
:10338000EE61DEE70CB1FFF72FF8AC693CB1FFF757
:10339000F5FE00B1EE61641EF9D10020A861E86974
:1033A00030B11449012738070860BFF34F8F00E0A0
:1033B00001E0BFF36F8FFFF7AFF93846BDE8F08744
:1033C000580000202E2E5C2E2E5C467265655254ED
:1033D0004F535C7372635C7461736B732E63000094
:1033E0004572726F723A25732C25640D0A00000035
:1033F0005009002004ED00E018340008000000200F
:10340000BC000000241B0008D4340008BC000020CD
:10341000D49C0000341B0008007A030A000000005E
:103420000000000001020304060708090000000074
:10343000010203040102030406070809000000005A
:10344000000000000000000000000000000000007C
:10345000000000000000000000000000000000006C
:10346000000000000000000000000000000000005C
:10347000000000000000000000000000000000004C
:10348000000000000000000000000000000000003C
:10349000000000000000000000000000000000002C
:1034A000000000000000000000000000000000001C
:1034B000000000000000000000000000000000000C
:1034C0000000000000000000AAAAAAAA0000000054
:0434D00000000000F8
:040000050800018965
:00000001FF
